:100000000C94AE1A0C94DF1A0C94DF1A0C94DF1ABD
:100010000C94DF1A0C94DF1A0C94DF1A0C94DF1A7C
:100020000C94DF1A0C94DF1A0C94DF1A0C94DF1A6C
:100030000C94DF1A0C9463830C94DF1A0C94DF1A6F
:100040000C94DF1A0C94885A0C94DF1A0C94DF1A63
:100050000C94DF1A0C94DF1A0C94C9CB0C941983FE
:100060000C94DF1A0C94363A0C942C3A0C94DF1A48
:100070000C94DF1A0C94DF1A0C94DF1A0C94DF1A1C
:100080000C94DF1A0C94DF1A0C94DF1A0C94DF1A0C
:100090000C94DF1A0C94DF1A0C94DF1A0C94DF1AFC
:1000A0000C94DF1A0C94DF1A0C94DF1A0C94DF1AEC
:1000B0000C94DF1A0C94DF1A0C94DF1A0C94DF1ADC
:1000C0000C94DF1A0C94DF1A0C94DF1A0C94DF1ACC
:1000D0000C94DF1A0C94DF1A0C94DF1A0C94DF1ABC
:1000E0000C94DF1A65723E724172687244724772F4
:1000F0004A7256724D7263725072537235A0A49E4A
:10010000DD9E71A0DD9EDD9EDD9EDD9EDD9EDD9E81
:10011000DD9EDD9EDD9EDD9EDD9EDD9EDD9EDD9E07
:10012000DD9EDD9EDD9EDD9EDD9EDD9EDD9EDD9EF7
:10013000DD9EDD9EDD9EDD9E6BA0DD9EDD9EDD9E57
:10014000DD9EDD9EDD9EDD9EDD9E44A0DD9EDD9E6E
:10015000DD9EDD9EDD9EDD9EDD9EDD9EDD9EDD9EC7
:1001600088A0DA9E56B759B748B74CB752B790B780
:100170005DB761B767B76BB76FB775B779B77DB75D
:1001800090B783B787B78BB7FFB904BA09BA13BA68
:100190001DBA96BA27BA2FBA37BA41BA4BBA55BA6E
:1001A00064BA6EBA96BA78BA82BA8CBA084AD73BA1
:1001B0003BCE016E84BCBFFDC12F3D6C74319ABD36
:1001C00056833DDA3D00C77F11BED9E4BB4C3E915A
:1001D0006BAAAABE000000803F05A84CCDB2D44E49
:1001E000B93836A9020C50B9918688083CA6AAAA4B
:1001F0002ABE000000803F004E414E494E495459EE
:10020000494E46CDCCCC3D0AD7233C17B7D13877E1
:10021000CC2B329595E6241FB14F0A0000204100F7
:1002200000C84200401C4620BCBE4CCA1B0E5AAE41
:10023000C59D7400407A10F35A00A0724E18090050
:1002400010A5D4E80000E87648170000E40B54023B
:100250000000CA9A3B000000E1F505000080969876
:1002600000000040420F000000A0860100000010C6
:100270002700000000E80300000000640000000008
:10028000000A00000000000100000000002C76D8E9
:1002900088DC674F0823DFC1DFAE59E1B1B796E5CF
:1002A000E3E453C63AE651997696E8E6C28426EB33
:1002B000898C9B62ED407C6FFCEFBC9C9F40F2BA46
:1002C000A56FA5F490055A2AF75C936B6CF9676DDE
:1002D000C11BFCE0E40D47FEF520E6B500D0ED9033
:1002E0002E0300943577050080841E080000204E00
:1002F0000A000000C80C333333330F986E12831199
:1003000041EF8D2114893BE65516CFFEE6DB18D16F
:10031000844B381BF77C1D901DA4BBE42420328441
:10032000725E228100C9F124ECA1E53D27434F4DC7
:100330004D554E49434154494F4E00445259525530
:100340004E004552524F525300494E464F004543CE
:10035000484F0047322F473320626164207061723A
:10036000616D65746572730A00536C6565702E2E3D
:100370002E00436C69636B20746F20526573756D3A
:10038000652E2E2E00494E434F5252454354205065
:1003900052494E54455200534F564F4C20535630FD
:1003A00031004E6F204D6F76652E00456E642066DD
:1003B000696C65206C6973740A00426567696E2018
:1003C00066696C65206C6973740A00286E6F20661C
:1003D000696C65290043757272656E742066696C7C
:1003E000653A20005344207072696E74696E67200C
:1003F0006279746520004E6F7420534420707269D6
:100400006E74696E670A002569730025696D202581
:100410006973002569682025696D202569730025A9
:100420006964202569682025696D20256973002588
:10043000697920256964202569682025696D202552
:100440006973005072696E742074696D653A20009A
:10045000436F6F6C696E672E2E2E0048656174695C
:100460006E672E2E2E0045202553006F6B006F66A1
:1004700066004E03490342033B032D0344454255A6
:10048000473A004D3131322053687574646F776E8E
:10049000004D313133205300534F564F4C205356AB
:1004A0003031204F46462E004348414D4245525F71
:1004B00054454D5045524154555245004D4F5449B5
:1004C0004F4E5F4D4F44455300544845524D414CAB
:1004D0005F50524F54454354494F4E004155544F7D
:1004E0005245504F52545F53445F535441545553F7
:1004F0000050524F4D50545F535550504F5254007E
:10050000454D455247454E43595F50415253455220
:1005100000434153455F4C494748545F4252494765
:1005200048544E45535300544F47474C455F4C4940
:100530004748545300534F4654574152455F504F1C
:10054000574552004255494C445F50455243454E31
:1005500054004C4556454C494E475F444154410078
:100560005A5F50524F4245004155544F4C455645F5
:100570004C005052494E545F4A4F420050524F4730
:1005800052455353004155544F5245504F52545FBA
:1005900054454D5000564F4C554D4554524943001B
:1005A000454550524F4D0042494E4152595F4649D0
:1005B0004C455F5452414E534645520053455249B3
:1005C000414C5F584F4E5F584F4646004649524D8A
:1005D000574152455F4E414D453A4D61726C696ECF
:1005E00020322E302E302028476974487562292029
:1005F000534F555243455F434F44455F55524C3A24
:1006000068747470733A2F2F6769746875622E630B
:100610006F6D2F4D61726C696E4669726D77617294
:10062000652F4D61726C696E2050524F544F434F8D
:100630004C5F56455253494F4E3A312E30204D4172
:100640004348494E455F545950453A534F564F4CD5
:1006500020535630312045585452554445525F433B
:100660004F554E543A3120555549443A63656465B7
:10067000326132662D343161322D343734382D39C0
:100680006231322D6335356336326633363766660E
:100690000A002F2F20004D31343520533C696E6401
:1006A00065783E206F7574206F662072616E676595
:1006B0002028302D31290A003F4A206F7574206FA1
:1006C000662072616E67652028302E303120746F8D
:1006D00020302E33290A0020466C6F773A200050D4
:1006E000726F7465637465642050696E0A00496EA8
:1006F00076616C69642065787472756465720A004D
:1007000020643A0020693A0020703A00646973005E
:10071000656E0043290A0061626C656420286D697A
:100720006E2074656D702000436F6C642065787472
:10073000727564657320617265200046696C616D35
:10074000656E742072756E6F757420004F666673E7
:10075000657473204170706C696564004572723A0B
:1007600020546F6F206661722100546F6F206661A4
:10077000722066726F6D207265666572656E636564
:1007800020706F696E740A00454550524F4D204FDE
:100790004B0A004F4646004F4E00506F7765722D52
:1007A0006C6F7373207265636F7665727920004990
:1007B0006E76616C69642065787472756465720A1E
:1007C000004572726F722077726974696E67207467
:1007D0006F20454550524F4D210A00363726033CC5
:1007E0003D380E2E303E121A1C1808440AFF4308EA
:1007F000090001627573793A207061757365642030
:10080000666F7220696E7075740A00627573793A4A
:100810002070617573656420666F722075736572F0
:100820000A00627573793A2070726F636573736939
:100830006E670A004D3630300053544F50504544D7
:100840002E20005072696E7465722073746F707020
:1008500065642064756520746F206572726F7273B1
:100860002E2046697820746865206572726F722048
:10087000616E6420757365204D39393920746F209D
:10088000726573746172742E202854656D70657280
:1008900061747572652069732072657365742E20AA
:1008A0005365742069742061667465722072657383
:1008B00074617274696E67290A004E6F204368651F
:1008C000636B73756D2077697468206C696E652041
:1008D0006E756D6265722C204C617374204C696E6C
:1008E000653A20004E6F20436865636B73756D2019
:1008F00077697468206C696E65206E756D626572CB
:100900002C204C617374204C696E653A200063683A
:1009100065636B73756D206D69736D617463682CAD
:10092000204C617374204C696E653A20004C696EEE
:1009300065204E756D626572206973206E6F74203C
:100940004C617374204C696E65204E756D626572E2
:100950002B312C204C617374204C696E653A200059
:100960004D313130004D313137004D33310053447A
:100970002072656164206572726F720A00446F6E46
:1009800065207072696E74696E672066696C650AAD
:10099000004B494C4C20636175736564206279207B
:1009A0004B494C4C20627574746F6E2F70696E0ADF
:1009B000004B494C4C20636175736564206279205B
:1009C000746F6F206D75636820696E6163746976FA
:1009D000652074696D65202D2063757272656E7473
:1009E00020636F6D6D616E643A20003F0053746147
:1009F0007274205072696E740043616E63656C009E
:100A00005072696E740043616E6E6F7420656E740F
:100A10006572207375626469723A2000022E2E009E
:100A20004D61696E004D6F74696F6E00416476614F
:100A30006E6365642053657474696E6773004D3826
:100A4000340044697361626C65205374657070652D
:100A5000727300473238004175746F20486F6D65BE
:100A6000004D61696E005072656865617420504C7C
:100A70004120456E64005072656865617420504C79
:100A8000412042656400220A00556E6B6E6F776EDE
:100A900020636F6D6D616E643A20220020746F6F69
:100AA000206C6F6E6720657874727573696F6E2045
:100AB00070726576656E7465640A0020636F6C649D
:100AC00020657874727573696F6E207072657665D3
:100AD0006E7465640A00454550524F4D2064617440
:100AE0006173697A65206572726F722E0A00290A35
:100AF000002062797465733B206372632000207369
:100B0000746F7265642073657474696E67732072A4
:100B10006574726965766564202800202863616CBD
:100B200063756C6174656429210A0020213D2000F1
:100B3000454550524F4D20435243206D69736D61BE
:100B4000746368202D202873746F726564292000F7
:100B50002053697A653A2000496E6465783A20002E
:100B6000204D61726C696E3D563734290A00454547
:100B700050524F4D2076657273696F6E206D6973A8
:100B80006D617463682028454550524F4D3D0048C3
:100B9000617264636F6465642044656661756C743A
:100BA0002053657474696E6773204C6F616465646B
:100BB0000A000000FA430000FA430000A0400000D1
:100BC000C8410000A0420000A0420000C8430080CD
:100BD000CF43F4010000F401000064000000E803CA
:100BE000000020204D363033200020204D3431329B
:100BF00020530046696C616D656E742072756E6F6E
:100C000075742073656E736F723A0A002055004C3C
:100C10000046696C616D656E74206C6F61642F7540
:100C20006E6C6F6164206C656E677468733A0A005D
:100C300020204D3230392053004175746F2D52659C
:100C400074726163743A20533D3020746F2064697C
:100C50007361626C652C203120746F20696E74653D
:100C6000727072657420452D6F6E6C79206D6F7691
:100C7000657320617320726574726163742F72658D
:100C8000636F7665720A0020460020570020204DD1
:100C90003230382053005265636F7665723A2053C4
:100CA0003C6C656E6774683E20463C756E69747373
:100CB0002F6D3E0A0020460020570020204D323084
:100CC00037205300526574726163743A20533C6C50
:100CD000656E6774683E20463C756E6974732F6D4F
:100CE0003E205A3C6C6966743E0A0020204D343127
:100CF00033205300506F7765722D4C6F7373205201
:100D000065636F766572793A0A00204400204900D5
:100D100020204D33303120500050494420736574F9
:100D200074696E67733A0A0020460020420020482A
:100D30000020204D3134352053004D6174657269B7
:100D4000616C2068656174757020706172616D6599
:100D5000746572733A0A0020204D323036205800F4
:100D6000486F6D65206F66667365743A0A00204AA5
:100D70000020540020530020204D32303520420006
:100D8000204A3C6A756E635F6465763E0041647616
:100D9000616E6365643A20423C6D696E5F7365679E
:100DA0006D656E745F74696D655F75733E20533C4D
:100DB0006D696E5F66656564726174653E20543C62
:100DC0006D696E5F74726176656C5F66656564728D
:100DD0006174653E0020540020520020204D3230C6
:100DE00034205000416363656C65726174696F6E95
:100DF0002028756E6974732F7332293A20503C7025
:100E000072696E745F616363656C3E20523C72650B
:100E100074726163745F616363656C3E20543C74FB
:100E2000726176656C5F616363656C3E0A002020C9
:100E30004D3230312058004D6178696D756D20411B
:100E40006363656C65726174696F6E2028756E6985
:100E500074732F7332293A0A00204500205A00206B
:100E6000590020204D3230332058004D6178696D93
:100E7000756D206665656472617465732028756E92
:100E80006974732F73293A0A005374657073207064
:100E9000657220756E69743A0A0020204D32303038
:100EA0002044300A0020204D3230302044002044BD
:100EB000697361626C65640A0046696C616D656E98
:100EC000742073657474696E67733A0020204D3125
:100ED00034392043203B20556E69747320696E209D
:100EE00043656C736975730A0020286D6D290020B5
:100EF00020473231202020203B20556E697473201A
:100F0000696E206D6D0024F4D43050C38E20C2A2CF
:100F10004017828B7011127A910D816CD90AA861E9
:100F2000E108C7586607615143061E4B5D05C14580
:100F3000A7041A411104093D980371393103403661
:100F4000DB0265339102D4305402802E1D02632CE3
:100F5000EE01752AC501B028A001102781018F2557
:100F600064012B244B01E0223401AC211F018D20B0
:100F70000D01801FFC00841EED00971DDF00B81CD2
:100F8000D200E61BC600201BBC00641AB200B219D6
:100F9000A8000A19A0006A189900D11791004017FB
:100FA0008B00B516840031167E00B31579003A1512
:100FB0007300C7146F0058146A00EE13660088139C
:100FC000630025135E00C7125B006C1257001512F8
:100FD0005400C111510070114F0021114B00D61067
:100FE00049008D1047004610440002104200C00F17
:100FF0004000800F3E00420F3C00060F3B00CB0E2E
:101000003800930E37005C0E3500270E3400F30DC8
:101010003200C10D3100900D3000600D2E00320DF8
:101020002D00050D2C00D90C2B00AE0C2900850CD1
:1010300029005C0C2700350C27000E0C2600E80B5D
:101040002400C40B2400A00B23007D0B23005A0BAB
:101050002100390B2100180B2000F80A1F00D90AC3
:101060001E00BB0A1E009D0A1D00800A1D00630AA7
:101070001C00470A1B002C0A1B00110A1A00F70962
:101080001A00DD091900C4091900AB0919009209F9
:1010900017007B091800630917004C091600360970
:1010A0001600200916000A091500F5081500E008C9
:1010B0001400CC081400B8081400A4081400900808
:1010C00013007D0812006B08130058081200460830
:1010D0001200340811002308110012081100010841
:1010E0001100F0071000E0071000D0071000C00743
:1010F0001000B0070F00A107100091070E00830732
:101100000F0074070F0065070E0057070E00490710
:101110000E003B070D002E070E0020070D001307E1
:101120000D0006070D00F9060C00ED060D00E006A7
:101130000C00D4060C00C8060C00BC060C00B0065F
:101140000C00A4060B0099060C008D060B0082060D
:101150000B0077060B006C060B0061060A005706B1
:101160000B004C060A0042060A0038060A002E064A
:101170000A0024060A001A060A00100609000706DB
:101180000A00FD050900F4050900EB050900E20568
:101190000900D9050900D0050900C7050900BE05E9
:1011A0000900B5050800AD050800A50509009C0566
:1011B0000800940508008C050800840508007C05DB
:1011C0000800740508006C050700650508005D054A
:1011D0000700560508004E050700470507004005B3
:1011E000080038050700310507002A050700230518
:1011F00007001C050600160507000F050700080577
:10120000060002050700FB040600F5040700EE04D3
:101210000600E8040600E2040700DB040600D5042B
:101220000600CF040600C9040600C3040600BD047E
:101230000600B7040600B1040500AC040600A604CD
:101240000600A00405009B04060095040500900418
:1012500006008A04050085040500800406007A045F
:10126000050075040500700405006B0405006604A4
:101270000500610405005C040500570405005204E4
:1012800005004D04050048040500430405003E0424
:1012900004003A04050035040500300404002C0461
:1012A000050027040400230405001E0404001A049A
:1012B000040016040500110404000D0404000904D0
:1012C00005000404040000040400FC030400F80307
:1012D0000400F4030400F0030400EC030400E8033A
:1012E0000400E4030400E0030400DC030400D8036A
:1012F0000400D4030400D0030400CC030400C8039A
:101300000300C503030024F404D9201BC40C5C0EA5
:101310009804C4095F0265077101F405F900FB0434
:10132000B30048048700C103690058035500030354
:101330004500BE023A008402310053022A0029020D
:10134000250004022000E4011C00C8011900AF01BF
:10135000170098011400840113007101100061014D
:10136000100051010E0043010D0036010B002B014E
:101370000B0020010B00150109000C0109000301FD
:101380000800FB000800F3000800EB000700E40081
:101390000600DE000600D8000600D2000600CC00E1
:1013A0000500C7000500C2000500BD000400B9002B
:1013B0000400B5000400B1000400AD000400A90061
:1013C0000400A5000300A20003009F0004009B008E
:1013D00003009800030095000200930003009000B2
:1013E00003008D0002008B000300880002008600CD
:1013F000020084000300810002007F0002007D00E3
:1014000002007B00020079000200770001007600F4
:1014100002007400020072000100710002006F00FF
:1014200002006D0001006C0002006A00010069000A
:101430000200670001006600010065000100640011
:1014400002006200010061000100600001005F0015
:1014500002005D0001005C0001005B0001005A0019
:10146000010059000100580001005700010056001A
:10147000010055000100540001005300000053001A
:1014800001005200010051000100500001004F0016
:1014900001004E0000004E0001004D0001004C0014
:1014A00001004B0000004B0001004A000100490010
:1014B000010048000000480001004700010046000C
:1014C0000000460001004500000045000100440006
:1014D0000100430000004300010042000000420000
:1014E00001004100000041000100400001003F00F8
:1014F00000003F0001003E0000003E0001003D00F2
:1015000000003D0001003C0000003C0000003C00E9
:1015100001003B0000003B0001003A0000003A00DF
:1015200001003900000039000100380000003800D7
:1015300000003800010037000000370001003600CD
:1015400000003600000036000100350000003500C4
:1015500000003500010034000000340000003400B9
:1015600001003300000033000000330001003200AE
:1015700000003200000032000100310000003100A4
:101580000000310001003000000030000000300099
:1015900001002F0000002F0000002F0000002F008E
:1015A00001002E0000002E0000002E0001002D0082
:1015B00000002D0000002D0000002D0001002C0077
:1015C00000002C0000002C0000002C0001002B006B
:1015D00000002B0000002B0000002B0001002A005F
:1015E00000002A0000002A0000002A000100290053
:1015F0000000290000002900000029000000290047
:101600000100280000002800000028000000280039
:10161000000028000100270000002700000027002C
:10162000000027000000270001002600000026001F
:101630000000260000002600000026000100250012
:101640000000250000002500000025000000250006
:1016500000002500010024000000240000002400F8
:1016600000002400000024000100230000002300EB
:1016700000002300000023000000230000002300DE
:1016800000002300010022000000220000002200D0
:1016900000002200000022000000220001002100C2
:1016A00000002100000021000000210000002100B6
:1016B00000002100000021000100200000002000A7
:1016C000000020000000200000002000000020009A
:1016D000000020000000200001001F0000001F008B
:1016E00000001F0000001F0000001F0000001F007E
:1016F00000001F0001001E0000001E0000001E0070
:1017000000001E000000043700001E290000511BCD
:1017100000005810000010090000CC0400007802FE
:1017200000004101000023646566696E6520444540
:101730004641554C545F004B6420004B6920004BE0
:10174000702000504944204175746F74756E652097
:1017500066696E69736865642120507574207468C9
:1017600065206C617374204B702C204B6920616E76
:1017700064204B6420636F6E7374616E74732066B3
:10178000726F6D2062656C6F7720696E746F204395
:101790006F6E66696775726174696F6E2E680A0094
:1017A000504944204175746F74756E652066616997
:1017B0006C6564212074696D656F75740A005468E6
:1017C00065726D616C2052756E6177617900486554
:1017D0006174696E67206661696C65640050494494
:1017E000204175746F74756E65206661696C6564FF
:1017F000212054656D706572617475726520746F17
:101800006F20686967680A00204B643A2000204B0B
:10181000693A2000204B703A20000A20436C617323
:1018200073696320504944200A002054753A20000F
:10183000204B753A2000206D61783A2000206D69B8
:101840006E3A200020643A200020626961733A20D9
:1018500000504944204175746F74756E652073742F
:101860006172740A00504944204175746F74756E3A
:1018700065206661696C6564212054656D706572D0
:10188000617475726520746F6F20686967680A00FB
:10189000504944204175746F74756E6520666169A6
:1018A0006C6564212042616420657874727564659A
:1018B00072206E756D6265720A004572723A20750B
:1018C00074663820666F6E74206E6F7420696E695E
:1018D0007469616C697A65642E004572723A20758C
:1018E00074663820666F6E74206E6F7420696E693E
:1018F0007469616C697A65642E004572723A20756C
:1019000074663820666F6E74206E6F7420696E691D
:101910007469616C697A65642E00000C0D00FE0725
:10192000022603BC017FFE08FE08FE05080806002B
:101930000040F0C88888987810050808060000C0A4
:10194000F88888888888F80505050600012030F8A1
:1019500030200508080600002070F820202020E034
:101960000509090600FF2070A8A8B888887020051E
:101970000606060001E08CEA8C8A0A0509090600C1
:10198000FFF8A88888888888A8F8050A0A0600FE53
:10199000205050505088A8A8887003030306000305
:1019A00040A040FFFFFFFFFFFFFFFFFFFFFFFFFF24
:1019B000FFFFFFFFFFFFFFFFFF0000000605FF0125
:1019C00007070602008080808080008003030306F2
:1019D0000105A0A0A005060606000050F85050F82A
:1019E000500509090600FF2070A8A07028A87020E3
:1019F000050707060000C8C810204098980507078B
:101A000006000040A0A040A890680103030602055C
:101A10008080800309090601FF20404080808040CB
:101A200040200309090601FF80404020202040405B
:101A30008005070706000020A8702070A820050573
:101A4000050600012020F820200203030601FFC044
:101A50004080050101060003F8020202060100C0F1
:101A6000C005070706000008101020404080050749
:101A700007060000708898A8C88870030707060149
:101A80000040C040404040E0050707060000708865
:101A900008102040F8050707060000F80810300875
:101AA000887005070706000010305090F8101005E8
:101AB0000707060000F880F0080888700507070689
:101AC0000000304080F0888870050707060000F8A5
:101AD0000810102020200507070600007088887075
:101AE00088887005070706000070888878081060ED
:101AF000020505060100C0C000C0C00206060601BE
:101B0000FFC0C000C04080030505060101204080E1
:101B10004020050303060002F800F803050506014E
:101B200001804020408005070706000070881020D3
:101B30002000200507070600007088B8A8B880704C
:101B4000050707060000708888F888888805070759
:101B5000060000F04848704848F0050707060000F6
:101B600070888080808870050707060000F048486C
:101B7000484848F0050707060000F88080F080809C
:101B8000F8050707060000F88080F08080800507D0
:101B90000706000070888080988870050707060097
:101BA00000888888F8888888030707060100E040D5
:101BB00040404040E00507070600003810101010B4
:101BC00090600507070600008890A0C0A0908805D7
:101BD0000707060000808080808080F805070706E0
:101BE000000088D8A888888888050707060000882C
:101BF00088C8A89888880507070600007088888824
:101C0000888870050707060000F08888F0808080CB
:101C100005070706000070888888A89068050707F0
:101C2000060000F08888F0A09088050707060000ED
:101C300070888070088870050707060000F820206B
:101C400020202020050707060000888888888888CB
:101C5000700507070600008888888850502005070F
:101C60000706000088888888A8A85005070706008E
:101C7000008888502050888805070706000088885B
:101C80005020202020050707060000F808102040FB
:101C900080F80309090601FFE08080808080808051
:101CA000E0050707060000804040201010080309E7
:101CB000090601FFE020202020202020E00503036A
:101CC0000600052050880501010600FEF803030305
:101CD000060105804020050505060000700878888B
:101CE000780507070600008080F0888888F00505E1
:101CF0000506000070808088700507070600000850
:101D00000878888888780505050600007088F080C6
:101D100070050707060000304840E04040400507D6
:101D2000070600FE70888888780870050707060097
:101D3000008080F08888888803070706010040003B
:101D4000C0404040E00409090601FE1000301010B8
:101D50001010906005070706000080808890E090D2
:101D600088030707060100C04040404040E00505E9
:101D700005060000D0A8A8A8A8050505060000B023
:101D8000C888888805050506000070888888700561
:101D900007070600FEF0888888F0808005070706A0
:101DA00000FE78888888780808050505060000B0D8
:101DB000C880808005050506000078807008F00561
:101DC00007070600002020F820202018050505063A
:101DD00000008888889868050505060000888888BE
:101DE00050200505050600008888A8A850050505AF
:101DF00006000088502050880507070600FE8888E6
:101E00008850204080050505060000F8102040F8A5
:101E10000309090601FF2040404080404040200166
:101E200009090602FF80808080808080808003090D
:101E3000090601FF804040402040404080050303E8
:101E400006000248A890FF5061726B696E672E2EE3
:101E50002E0000005761697420666F720066696C1D
:101E6000616D656E74206368616E676500746F20D4
:101E70007374617274005761697420666F720066D2
:101E8000696C616D656E7420756E6C6F61640000C5
:101E90004E6F7A7A6C652068656174696E67005070
:101EA0006C6561736520776169742E2E2E00005079
:101EB0007265737320627574746F6E00746F20683E
:101EC000656174206E6F7A7A6C650000496E736587
:101ED00072742066696C616D656E7400616E642059
:101EE000707265737320627574746F6E00746F2006
:101EF000636F6E74696E7565005761697420666FF3
:101F0000720066696C616D656E74206C6F6164004F
:101F100000507265737320427574746F6E00746F35
:101F200020726573756D65207072696E740000575C
:101F300061697420666F72207072696E7400746FCC
:101F400020726573756D652E2E2E000057616974C1
:101F500020666F720066696C616D656E74207075C5
:101F60007267650000313135003A200030003A20B8
:101F7000004245443A4550434F53203130304B00E6
:101F800052756E617761792057617463683A204FAA
:101F90004E004D61782054656D7000323630003A45
:101FA00020004D696E2054656D700030003A2000AD
:101FB00045313A204550434F53203130304B00508B
:101FC0005355004D45414E2057454C4C003A20009A
:101FD00050726F746F636F6C00312E30003A2000C6
:101FE0004261756400313135323030003A200052A0
:101FF000414D505320312E3300687474703A2F2FA6
:10200000736F766F6C33642E636F6D00534F564F52
:102010004C205356303100322E302E30004D61723C
:102020006C696E00546865726D6973746F727300C9
:10203000426F61726420496E666F005072696E74FF
:10204000657220496E666F004D61696E004D3130DA
:1020500030300053746F70205072696E7400526596
:1020600073756D65205072696E74004F7574616789
:1020700065205265636F76657279003F0042616347
:102080006B0053746F70005072696E742066726FCB
:102090006D204D65646961004D3231004368616EA9
:1020A0006765204D656469610041626F75742050F9
:1020B00072696E74657200436F6E666967757261EE
:1020C00074696F6E004C6576656C20436F726E6547
:1020D00072730054656D7065726174757265004D40
:1020E0006F74696F6E00526573756D65205072690B
:1020F0006E7400416476616E636564205365747428
:10210000696E67730054756E650053746F7020506C
:1021100072696E74005061757365205072696E74D7
:10212000004E6F204D6564696100496E666F2053F3
:10213000637265656E00204D3932205800205800CA
:1021400020204D61783A2000200020204D696E3A11
:102150002000536F667420656E6473746F70733AF9
:1021600020004D3630303A20546F6F20436F6C643E
:1021700000486F74656E6420746F6F20636F6C64C9
:102180000A00496E736572742066696C616D656ED4
:102190007420616E6420707265737320627574744C
:1021A0006F6E0A00507265737320627574746F6E7F
:1021B00020746F2068656174206E6F7A7A6C650A8E
:1021C000004D32342053256C642054256C64004744
:1021D00039322E39204525730047312046256400C9
:1021E0004739322E39205A2573004731205A302082
:1021F000463230300047312058257320592573204E
:102200004633303030004D31303620502569205370
:102210002569004D31303920532569004D31393061
:1022200020532569004D3230302044257300473952
:10223000322E392045305A300A47315A320A473255
:1022400038523058590020496E76616C69642065B7
:102250007874727564657220002568753A2530328D
:1022600068750025303268753A253032687500256A
:102270006875642025303268753A253032687500FB
:10228000202020202020200020202020001FE020CF
:1022900010201020101020102020102010303008A6
:1022A00040048003001FE03FF03FF03FF01FE01FBD
:1022B000E03FF03FF03FF00FC0078003003FFFF02A
:1022C00038007030FC3020FC102078102030102CAA
:1022D00000D02E31D02F7BD02F7BD02E31D02C00B0
:1022E000D020301020781020FC1030FC30380070E6
:1022F0003FFFF03FFFF03800703186302387102712
:1023000087902F87D02F03D020301020781020788E
:10231000102030102F03D02F87D0278790238710CD
:102320003186303800703FFFF01FFFF81FFFF804C0
:1023300010400208200208200410400820801041AC
:10234000001041000820800410400000001FFFF82A
:102350001FFFF80000000000000000000000000067
:10236000000000000000000000000000000000006D
:1023700000000000000000000000001EF79C0400A8
:102380003F633E0C006363633C006063630C00606A
:1023900063630C003C63630C001E36630C00033661
:1023A000630C000336630C00631C630C007E1C3E50
:1023B0003F003C081C3F000000000000000000003F
:1023C000000000000000000000000000000000000D
:1023D00000000000000000000000000000000002FB
:1023E00000000000000000000000000000000000ED
:1023F00000000000000000000000000000000000DD
:1024000000000000000000000000000000000000CC
:1024100000000000000000000000000000000000BC
:1024200000000000000000000000000000000000AC
:10243000000000000000000000000000000000009C
:10244000000000000000000000000000000000008C
:10245000000000000000000000000000000000007C
:10246000000000000000000000000000000000006C
:10247000000000000000000000000000000000005C
:10248000000000000000000000000000000000004C
:10249000000000000000000000000000000000003C
:1024A000000000000000000000000000000000002C
:1024B000000000000000000000000000000000001C
:1024C000000000000000000000000000000000000C
:1024D00000000000000000000000000000000000FC
:1024E00000000000000000000000000000000000EC
:1024F00000000000000000000000000000000000DC
:1025000000000000000000000000000000000000CB
:1025100000000000000000000000000000000000BB
:1025200000000000000000000000000000000000AB
:102530000003E40000000000078000F03FFF0000FF
:1025400000041C00000000000180031C0781C00083
:1025500000080C00000000000180030E0780E0006E
:1025600000100400000000000180030E07807000CE
:1025700000100400000000000180030E07807000BE
:1025800000180000000000000180000E07803800E5
:10259000001C0000000000000180000E07803800D1
:1025A000001FC000000000000180000C0780380000
:1025B000000FF803E1F8783E0180001007803C002E
:1025C0000007FC0C307000C3018001F007803C0064
:1025D0000001FE1C187021C18180001C07803C0096
:1025E00000001E1C1C3801C1C180000E07803C0089
:1025F0000000063C1C3843C1C1800007078038003A
:102600000000023C1C1C03C1C18000070780380089
:102610000000023C1C1C83C1C180000707803800F9
:102620000010023C1C0E03C1C18007070780700028
:102630000010021C1C0F01C1C18007070780700039
:102640000018041C180601C18180060E0780E000F6
:10265000001C080C300600C30180020C0781C0007A
:102660000013F003E000003E07E001F03FFF000030
:10267000000000000000000000000000000000005A
:10268000000000000000000000000000000000004A
:10269000000000000000000000000000000000003A
:1026A000000000000000000000000000000000002A
:1026B000000000000000000000000000000000001A
:1026C000000000000000000000000000000000000A
:1026D00000000000000000000000000000000000FA
:1026E00000000000000000000000000000000000EA
:1026F00000000000000000000000000000000000DA
:1027000000000000000000000000000000000000C9
:1027100000000000000000000000000000000000B9
:1027200000000000000000000000000000000000A9
:102730000000000000000000000000000000000099
:102740000000000000000000000000000000000089
:102750000000000000000000000000000000000079
:102760000000000000000000000000000000000069
:102770000000000000000000000000000000000059
:102780000000000000000000000000000000000049
:102790000000000000000000000000000000000039
:1027A0000000000000000000000000000000000029
:1027B0000000000000000000000000000000000019
:1027C0000000000000000000000000000000000009
:1027D00000000000000000000000000000000000F9
:1027E0004D313030302053002020506C616E6E65CA
:1027F0007242756666657242797465733A2000208C
:1028000046726565204D656D6F72793A2000436FA1
:102810006D70696C65643A204A616E2031362032F1
:102820003032300A00204C6173742055706461743A
:1028300065643A20323031392D31322D3031207CEF
:1028400020417574686F723A20534F564F4C0A00FE
:10285000322E302E300A004D61726C696E002053AA
:102860006F6674776172652052657365740A002023
:102870005761746368646F672052657365740A00FA
:102880002042726F776E206F757420526573657485
:102890000A002045787465726E616C20526573651C
:1028A000740A00506F77657255700A007374617214
:1028B000740A006175746F25632E670047323858BB
:1028C00059006572726F722077726974696E672041
:1028D000746F2066696C650A00446F6E65207361D1
:1028E00076696E672066696C652E0A004D32390084
:1028F000456E6473746F7073002553202563202523
:102900006320256320256300205A3A0020593A00AD
:1029100020583A00656E6473746F70732068697430
:102920003A20004C6F6164206D6D00556E6C6F61D4
:1029300064206D6D0046696C2E204469612E004F45
:102940006666004F6E004520696E206D6DC2B30053
:10295000436F6E66696775726174696F6E00565475
:10296000726176204D696E00566D696E00566D611C
:1029700078204500566D6178205A00566D617820A8
:102980005900566D617820580043616E6E6F742057
:102990006F70656E20737562646972200053442005
:1029A00063617264206F6B0A006F70656E526F6FA7
:1029B00074206661696C65640A00766F6C756D657C
:1029C0002E696E6974206661696C65640A005344FF
:1029D00020696E6974206661696C0A004D323400AA
:1029E0004D32332025730057726974696E67207405
:1029F0006F2066696C653A20002E0A006F70656E64
:102A0000206661696C65642C2046696C653A20001B
:102A10002E0A006F70656E206661696C65642C20FB
:102A200046696C653A200046696C652073656C6583
:102A3000637465640A002053697A653A2000466928
:102A40006C65206F70656E65643A20006672657310
:102A50006800646F696E67002066696C653A2000E3
:102A60004E6F772000454E4420535542524F5554E7
:102A7000494E450A002220706F7300222070617257
:102A8000656E743A2200535542524F5554494E4593
:102A90002043414C4C207461726765743A22007483
:102AA0007279696E6720746F2063616C6C20737536
:102AB000622D67636F64652066696C657320776952
:102AC000746820746F6F206D616E79206C65766517
:102AD0006C732E204D4158206C6576656C206973AF
:102AE0003A310A002E0A0044656C6574696F6E20E5
:102AF0006661696C65642C2046696C653A20004605
:102B0000696C652064656C657465643A002E0A0022
:102B10006F70656E206661696C65642C2046696C17
:102B2000653A200057726974696E6720746F206679
:102B3000696C653A2000554E4C4F41442046494C43
:102B4000414D454E54004C4F41442046494C414D67
:102B5000454E540046494C414D454E542043484152
:102B60004E4745004C6F61642053657474696E670D
:102B70007300526573746F7265206661696C73616E
:102B800066650053746F72652053657474696E676F
:102B900073004F7574616765205265636F76657267
:102BA000790046696C616D656E74004F6666004F12
:102BB0006E0052756E6F75742053656E736F720080
:102BC00052657472616374004368616E6765204684
:102BD000696C616D656E74004D61696E004D3730D2
:102BE0003220542564004D363030204230205425A8
:102BF00064004D373032203B2564004D37303120A2
:102C0000542564004D373032004D373031004D3699
:102C1000303020423000436F6E66696775726174B0
:102C2000696F6E004F6666004F6E0052756E6F756D
:102C3000742053656E736F72005075726765206DF6
:102C40006F726500436F6E74696E7565005245530F
:102C5000554D45204F5054494F4E533A005052491C
:102C60004E54205041555345440020204E6F7A7AEF
:102C70006C653A20002E0A006F70656E20666169EF
:102C80006C65642C2046696C653A200054484552B6
:102C90004D414C2052554E41574159005468657280
:102CA0006D616C2052756E61776179005072696E4A
:102CB0007420506175736564004D656469612052CC
:102CC000656D6F766564004D6564696120496E735A
:102CD000657274656400534F564F4C205356303123
:102CE0002052656164792E005072696E74696E6756
:102CF0002E2E2E005072696E742041626F727465C0
:102D000064004D3235005061757365205072696EF4
:102D100074005072656865617420414253204265B9
:102D20006400507265686561742041425320456EAD
:102D3000640054656D7065726174757265005072DF
:102D400065686561742041425320436F6E66005090
:102D500072656865617420504C4120436F6E660057
:102D6000436F6F6C646F776E005072656865617455
:102D700020414253005072656865617420504C4197
:102D80000046616E20537065656400426564004EC4
:102D90006F7A7A6C65004D61696E00426162797389
:102DA000746570205A00466C6F770046616E205340
:102DB0007065656400426564004E6F7A7A6C6500E8
:102DC0005370656564004D61696E003F0043616E3C
:102DD00063656C00496E697400496E697469616C61
:102DE000697A6520454550524F4D005374657073A4
:102DF0002F6D6D004A65726B00416363656C65728F
:102E00006174696F6E0056656C6F63697479004D0B
:102E100061696E004D6F74696F6E003F004E65789A
:102E20007420436F726E657200446F6E65004E656C
:102E3000787400486F6D696E672058595A00556E56
:102E4000526574205600556E526574206D6D0048B1
:102E50006F70206D6D00526574726163742020562E
:102E60000052657472616374206D6D004175746FFA
:102E7000526574722E00436F6E6669677572617475
:102E8000696F6E00426564004E6F7A7A6C65004629
:102E9000616E2053706565640054656D7065726184
:102EA000747572650000002100240027002A002D9F
:102EB000003000330001010000040107010A010095
:102EC000002200250028002B002E003100340002D3
:102ED000010000050108010B01000020002300266D
:102EE0000029002C002F0032000001000003010621
:102EF0000109010505050507050808080802020281
:102F0000020A0A0808040404040101010101010184
:102F1000010303030303030303040707070C0C0C5B
:102F20000C0C0C0C0C020202020606060606060633
:102F3000060B0B0B0B0B0B0B0B01021020200808D0
:102F4000102040102040800201020108040201010B
:102F500002040810204080804020100804020180F4
:102F6000040201804020100804020108040201014B
:102F70000204081020408001020408102040800054
:102F8000000A0B02090C0D0E0807030401000000E3
:102F90000000000000000000000000000000000031
:102FA00000000000000000000000001211100000EE
:102FB0000000000000000000000000000000000011
:102FC00000000000004D6F76652025736D6D0000D8
:102FD0004D6F766520302E316D6D004D6F7665201A
:102FE000316D6D004D6F76652031306D6D004D6F28
:102FF0007665204178697300486F74656E6420744B
:103000006F6F20636F6C64004578747275646572CD
:10301000004D6F7665205A004D6F76652059004D42
:103020006F76652058004368616E67652046696C5D
:10303000616D656E7400556E6C6F61642046696CDD
:10304000616D656E74004C6F61642046696C616DE2
:10305000656E74005072656865617420414253006A
:103060005072656865617420504C4100507265680B
:1030700065617420437573746F6D004261636B000A
:10308000202F002042403A0020403A0020573A00CA
:103090007C3C3E5E2B3D3F2F5B5D3B2C2A225C003F
:1030A0006F70656E00545249474745524544003A97
:1030B000200066696C616D656E74007A5F6D696E83
:1030C00000795F6D696E00785F6D696E00526570A2
:1030D0006F7274696E6720656E6473746F702073AD
:1030E00074617475730A00205A3A0020593A00201E
:1030F000436F756E7420583A0020453A00205A3AC2
:103100000020593A00583A0020746F6F206C6F6E9F
:103110006720657874727573696F6E20707265765A
:10312000656E7465640A0020636F6C642065787452
:10313000727573696F6E2070726576656E74656402
:103140000A00486F6D696E67204661696C656400AE
:1031500000000000000000000000000000004842E5
:1031600000004842000080405761726E696E673A05
:1031700020486F6D696E672042756D7020446976D6
:1031800069736F72203C20310A000202040000A023
:10319000400000A040000000400000914300007A81
:1031A0004300009B43FFFFFF42656400453100621E
:1031B0006564002C2073797374656D2073746F706F
:1031C00070656421204865617465725F49443A20E6
:1031D0000048656174696E67206661696C656400AA
:1031E000546865726D616C2052756E61776179000B
:1031F00048656174696E67204661696C6564004862
:10320000656174696E67206661696C656400546805
:1032100065726D616C2052756E6177617900202D49
:1032200020496E76616C6964206578747275646596
:1032300072206E756D62657220210A0070012C018A
:1032400090012701B0012201C0011D01F001180108
:103250001002130130020E01600209019002040104
:10326000C002FF000003FA004003F5008003F000F5
:10327000D003EB002004E6007004E100E004DC0071
:103280004005D700C005D2004006CD00D006C800DA
:103290008007C3003008BE00F008B900C009B400C0
:1032A000B00AAF00B00BAA00D00CA500000EA00021
:1032B000500F9B00C01096005012910000148C001B
:1032C000C0158700B0178200B0197D00D01B7800B0
:1032D000001E730040206E0090226900F0246400FC
:1032E00040275F0090295A00E02B5500102E500017
:1032F00020304B0010324600E033410090353C0056
:103300001037370070383200A0392D00B03A28004D
:10331000A03B2300603C1E00103D1900903D1400AE
:10332000103E0F00703E0A00C03E0500003F000046
:10333000403FFBFF803FF6FFC03FF1FF4572723A0E
:10334000204D415854454D50004D415854454D5025
:1033500020747269676765726564004572723A200D
:103360004D494E54454D50004D494E54454D502009
:10337000747269676765726564004D38342058203F
:1033800059205A204500416D6178204500416D610A
:1033900078205A00416D6178205900416D61782094
:1033A0005800412D54726176656C00412D52657450
:1033B0007261637400416363656C004A756E637487
:1033C000696F6E20446576004573746570732F6D68
:1033D0006D005A73746570732F6D6D005973746549
:1033E00070732F6D6D005873746570732F6D6D0061
:1033F000416476616E6365642053657474696E67B9
:1034000073000000914300007A4300009B430000DA
:1034100000000000000000000000290A002062797E
:103420007465733B20637263200053657474696E26
:1034300067732053746F726564202800506C656157
:103440007365205265736574005052494E5445525D
:103450002048414C5445440025533A202553004B05
:10346000494C4C45442E20005072696E74657220A0
:1034700068616C7465642E206B696C6C282920630C
:10348000616C6C6564210A006563686F3A0045727F
:10349000726F723A00486F74656E6420746F6F20AB
:1034A000636F6C640A00205400205200416363651E
:1034B0006C65726174696F6E3A2050004361703AB6
:1034C00000220A00656E7175657565696E67202258
:1034D000006F6B00526573656E643A200043616E45
:1034E0006E6F74206F70656E2073756264697220F0
:1034F0000020573A0042656420436F6F6C696E6725
:103500002E2E2E004265642048656174696E672E18
:103510002E2E005072696E742066726F6D204D659C
:1035200064696100486F6D652025732573257320DC
:10353000466972737400496E736572742066696CB3
:10354000616D656E7420616E6420707265737320A6
:10355000627574746F6E0A0044FD26FD11241FBE4F
:10356000CFEFD1E2DEBFCDBF00E00CBF13E0A0E0A3
:10357000B2E0E6EAF0E202E00BBF02C007900D9273
:10358000A432B107D9F725E1A4E2B3E001C01D924E
:10359000AF36B207E1F71AE1CDEADAE100E006C0A2
:1035A00021970109802FFE010F94AA0FCC3AD10771
:1035B00080E00807A9F70E947BF80D9442100C9454
:1035C00000002F923F924F925F926F927F928F9264
:1035D0009F92AF92BF92CF92DF92EF92FF920F93A2
:1035E0001F93CF93DF93CDB7DEB7C155D1090FB687
:1035F000F894DEBF0FBECDBF62968FAF6297209169
:10360000671521962FAF219781E0809367158091F0
:1036100068148D3409F42FC2843511F40C94C42A33
:10362000873411F00C94DF2A2090661430906714D0
:103630003BE02316310409F435C1DCF454E02516CF
:10364000310444F482E0281631040CF060C037FEE7
:1036500035C00DC294E02916310409F4E4C0AAE093
:103660002A16310409F003C281E00E94C3E30C94DE
:10367000E12ABCE12B16310409F433C164F4F5E10D
:103680002F16310411F40C94E12A2BE12216310497
:1036900009F40DC1ECC13BE52316310409F431C135
:1036A0004CE52416310409F431C15AE525163104DC
:1036B00009F0DDC110922E030C94E12A80915B0287
:1036C000882311F40C94E12A0E9487728091880962
:1036D000882311F40C94202B85E40E94C7E18823F1
:1036E00011F40C94202B88E50E94C7E181110C9401
:1036F000202B89E50E94C7E181110C94202B8AE5DB
:103700000E94C7E181110C94202B0C94EE2A809129
:103710005B02882311F40C94E12A0E94877282E5EF
:103720000E9410E2882309F44CC00E9494E16B01CE
:103730007C0120E030E0A9010F941B06882311F4DE
:103740000C94942F8091C4039091C503A091C6035B
:10375000B091C70388A399A3AAA3BBA32091C803D0
:103760003091C9034091CA035091CB032CA33DA3D0
:103770004EA35FA38090A9139090AA13A090AB13BF
:10378000B090AC134090AD135090AE136090AF1357
:103790007090B013A5019401BC01CD010F941B06DC
:1037A00081110C944B2BA30192016CA17DA18EA1E0
:1037B0009FA10F941B06882311F40C94942F0C9452
:1037C0004B2B89E40E9410E2882329F00E9494E1A7
:1037D0006B017C0103C0C12CD12C76018AE40E94CC
:1037E00010E2882311F40C94062C0E9494E168A73F
:1037F00079A78AA79BA720E030E0A901C701B601FD
:103800000F941B0681110C94142C20E030E0A901C8
:1038100068A579A58AA59BA50F941B0681110C9418
:10382000142C0C94942F80E50E9410E2882329F038
:103830000E9454E16B017C0103C0C12CD12C7601A4
:1038400083E50E9410E2882361F00E9494E120E069
:1038500030E04AE754E40F9480060F94DC0D6B01CE
:103860007C010E9422628091DA12811105C060E021
:1038700089E693E00E94D9A70E94D7BAC60ED71E48
:10388000E81EF91E0E94D7BADC01CB018C199D09F4
:10389000AE09BF09B7FD02C00C94E12A80E00E9486
:1038A000E234F0CF80E00E94C3E30C94E12A0E944E
:1038B00041F581110C94E12A8CE0E1E6F2E0DE01B1
:1038C000119601900D928A95E1F760E070E080E535
:1038D0000E949476BE016F5F7F4F0E94B2E00C940D
:1038E000E12A809164158770873011F00C949B2F2A
:1038F00060E08FE40E941CE281110C94E12A0C9498
:103900009B2F8FE080932E030C94E12A8091651405
:10391000882349F1893009F0A6C04DE6A42E42E083
:10392000B42E54ECE52E53E0F52ED12C00E010E03F
:10393000D5018D915D010E9410E2882369F00E94FB
:1039400094E1F7016083718382839383133011F4D0
:1039500001E002C0DD24D3941F5FF4E0EF0EF11C00
:10396000143031F775C09DE6292E92E0392E2DE9ED
:10397000E22E23E1F22E24EC33E039A328A331E92F
:10398000C32E33E1D32E00E010E0D1018D911D0153
:103990000E9410E2882309F44BC00E9494E12B019D
:1039A0003C01133049F0F60120813181428153817D
:1039B0000F94920C2B013C01A8A1B9A12D913D912E
:1039C0004D915C91C301B2010F94920C4B015C01CB
:1039D0002DEB37E346E855EB0F94B90E87FD0AC08F
:1039E0002DEB37E346E855E3C501B4010F941B0600
:1039F0001816F4F4133051F44092D0035092D103CE
:103A00006092D2037092D30301E012C0A501940129
:103A1000F70160817181828193810F94930CD701AA
:103A20006D937D938D939C931397812F0E9421C753
:103A30001F5FB4E0EB0EF11CE8A1F9A13496F9A3E5
:103A4000E8A3F4E0CF0ED11C143009F09ECF05C0DE
:103A5000DD2019F00E943CCA06C0002321F080ED51
:103A600093E00E9433620E943ECA0C94E12A0E94B5
:103A7000A0500C94E12A80916614909167148637C7
:103A8000910509F48EC70CF0EFC08B34910509F451
:103A90008CC40CF081C08831910509F4A5C20CF0EA
:103AA00047C08231910509F42FC65CF4803191053D
:103AB00009F453C20CF066C2029708F4D2C10C9408
:103AC000C12A8531910509F471C22CF5449711F092
:103AD0000C94C12A8AEB93E00E9418E581EF9FE0E5
:103AE0000E94BDBE8BE1E1EFFFE0DE011196019087
:103AF0000D928A95E1F760E070E0CE0101960E9498
:103B00005791CE0101960E9418E38BEA93E00E9440
:103B100018E50C94E12A8631910509F44BC24797C8
:103B200011F00C94C12AE091F514F091F6144FC2F3
:103B30008D31910509F416C3C4F48A31910509F455
:103B40009BC20CF48CC28B31910509F4A3C24C9733
:103B500011F00C94C12A40E060E08091F51490913E
:103B6000F6140E943A900C94E12A8032910509F4EF
:103B700010C34CF48E31910509F4FBC24F9709F440
:103B800046C30C94C12A8132910509F42CC38A974B
:103B900009F4E8C30C94C12A8A36910509F4A8C433
:103BA000ACF58335910509F4A8C5BCF48D349105B5
:103BB00009F403C40CF4FDC38135910509F489C5EA
:103BC0008235910511F00C94C12A80912E038F7DCE
:103BD000806180932E030C94E12A8C35910509F4C1
:103BE000D8C554F48435910509F48EC58535910501
:103BF00009F4B6C50C94C12A8836910509F4E1C3CD
:103C00008936910509F45EC40C94C12A8F3691055A
:103C100009F4A9C484F48C36910509F4E8C40CF4C1
:103C200085C48D36910509F4F0C38E36910509F4EB
:103C300087C40C94C12A8237910509F434C654F420
:103C40008037910509F4D8C48137910509F4DFC4A0
:103C50000C94C12A8337910509F42AC6853791054A
:103C600009F48FC60C94C12A8C3221E0920711F41A
:103C70000C94EA270CF06BC08C3C910509F4CAC780
:103C80008CF58139910509F4D8C684F488379105FB
:103C900009F4C4C60CF4BFC68937910509F4C6C639
:103CA0008C38910509F4D5C40C94C12A883C91053F
:103CB00009F41EC76CF48B39910509F4E4C48E3BFA
:103CC000910511F00C94C12A0E948CE60C94E12A13
:103CD000893C910509F459C78B3C910509F47BC7D0
:103CE0000C94C12A813D910511F40C94D1268CF4D9
:103CF0008E3C910509F4A4C70CF48FC78F3C910545
:103D000009F4C1C7803D910511F40C9487260C94E9
:103D1000C12A8D3D910511F40C94EE2664F4833D87
:103D2000910511F40C94DE268C3D910511F40C9450
:103D3000E1260C94C12A823E910511F40C9444278B
:103D40008232914011F40C9490270C94C12A863F42
:103D500051E0950711F40C9433290CF041C08A39D5
:103D6000B1E09B0709F450C4C4F48E32F1E09F0720
:103D700011F40C947E2814F40C94FF278F3231E058
:103D8000930711F40C94C2288039914011F00C94DF
:103D9000C12A0E9422620C94E12A8C3A51E09507D4
:103DA00011F40C94CD286CF48C39B1E09B0711F41C
:103DB0000C94C5288D39914011F40C94A02A0C94D0
:103DC000C12A843FF1E09F0711F40C943029853F0C
:103DD000914011F00C94C12A0E94E7590C94E12AF9
:103DE0008B3532E0930711F40C945829C4F4883FC2
:103DF00051E0950711F40C943F2914F40C943629E2
:103E00008C30B2E09B0711F40C9450298835924015
:103E100011F00C94C12A0E94BA760C94E12A803ADF
:103E2000F3E09F0709F4E3C16CF48D3B32E09307A4
:103E300011F40C94D1298E3B924011F40C94D429A6
:103E40000C94C12A873E53E0950711F40C94922AF2
:103E5000883E934011F00C94C12A0E949C730C94EC
:103E6000E12AA090F514B090F61480E50E9410E2CB
:103E7000882359F00E9454E16B017C0111E0672B0B
:103E8000682B692B31F410E004C010E0C12CD12C58
:103E9000760183E50E9410E2882311F40C946230CD
:103EA0000E9494E120E030E04AE754E40F94800659
:103EB0000F94DC0D6B017C0111110BC0672B682B7B
:103EC000692B39F4A114B10421F0F501808181112D
:103ED00002C010E001C011E00E942262112329F00B
:103EE00061E0C5010E9458A805C060E082E793E048
:103EF0000E94D9A71091671583E08093671581E030
:103F000080936615C114D104E104F104B1F00E945C
:103F1000D7BAC60ED71EE81EF91E0E94D7BADC011A
:103F2000CB018C199D09AE09BF09B7FF0EC0809166
:103F3000661581110C94673008C08091661588233E
:103F400021F080E00E94E234F8CF0E947DA8109218
:103F50006615109367150C94E12A67E973E0809168
:103F6000F5149091F6140F945B05892B11F40C94C1
:103F7000E12A40E060E070E085E893E00E9404E61A
:103F80000C94E12A8091611484FF02C00C946B3080
:103F90008091631487FF02C00C946B30809164148D
:103FA000837011F00C946B300C9487300E941F8E3C
:103FB0000C94E12A0E94AE8D8091D40F877F80936C
:103FC000D40F0C94E12A803209F41082319680815A
:103FD0008111F9CF40E061E08091F5149091F614E1
:103FE0000E943A900C94E12A83E50E9410E2882313
:103FF00021F00E9464E10E942EE984E50E9410E213
:104000008823A9F00E9464E16B017C010E9414DD09
:10401000C0922614D0922714E0922814F09229140A
:10402000CD28CE28CF2819F081E080932A140E9451
:104030000E33882381F00E94BF8D0E942FDD87E818
:104040009AE00E94668D1092691410926A14109280
:104050006B1410926C140E947DA80C94E12A80913C
:10406000D40F82FF03C08B7F8093D40F0E9451DD59
:104070000E947DA80C94E12A8091D40F83FD02C098
:104080000C94E12A83E50E9410E281110C94953092
:104090000C94E12A83E40E94C7E18823C1F185EDF5
:1040A00093E00E9418E580913811882339F1BE0110
:1040B0006F5F7F4F85E391E10E9485BD8E010F5FA9
:1040C0001F4FD8018D918D01882319F00E94C233B2
:1040D000F8CFCE0101960E940D9080912215882381
:1040E00089F080E20E94C23302E215E1F801819179
:1040F0008F01882339F00E94C233F8CF8BEC93E014
:104100000E9418E58AE00E94C2330C94E12A809153
:10411000D40F82FF21C084EE93E00E9418E56091E5
:10412000D00F7091D10F8091D20F9091D30F4AE0B0
:104130000E94C9338FE20E94C2336091CC0F70910C
:10414000CD0F8091CE0F9091CF0F4AE00E94C933DE
:104150000E94BF340C94E12A86EF93E00E9418E598
:104160000C94E12A8091D40F8E7F8093D40F0C940D
:10417000E12A8091D40F83FD02C00C94E12A0E94B1
:1041800089508091F5149091F6140E94988F0C94A8
:10419000E12A8091D40F82FD0E9422628091D40F87
:1041A00083FD02C00C94E12A60E080E50E941CE2DD
:1041B000182F482F61E08091F5149091F6140E9419
:1041C0003A9083E50E9410E2882321F00E9464E186
:1041D0000E942EE90E94BF8D11110C94E12A0E94C9
:1041E0002FDD0C94E12A0E9464E80C94E12A2091CE
:1041F000F5143091F6149091D40F92609093D40FEF
:1042000040E060E0C9010E943A900C94E12A0E94CB
:10421000E0DC7B018C0120E831E541E050E00F94C7
:10422000570CC9016DE671E00F94670F4B015C01FB
:10423000C801B70120E13EE040E050E00F94570C88
:10424000CA01B90128E130E040E050E00F94570C7A
:10425000762E672EC62ED72E8CE3282E312C412C9D
:10426000512CC801B701A20191010F94570CF62EF1
:10427000E72ECA01B901A20191010F94570CCB019D
:104280008E010F5F1F4F8114910499F0EF92FF92FE
:104290007F936F936F927F92BF92AF929F928F9214
:1042A0008FE294E09F938F931F930F930F94B50524
:1042B00013C0A114B104B1F0EF92FF927F936F93FA
:1042C0006F927F92BF92AF928FE194E09F938F9312
:1042D0001F930F930F94B5050FB6F894DEBF0FBE72
:1042E000CDBF30C0CD2879F0EF92FF927F936F93CE
:1042F0006F927F9283E194E09F938F931F930F932C
:104300000F94B505E9CF892B69F0EF92FF927F9367
:104310006F938BE094E09F938F931F930F930F9471
:10432000B505DACFEF92FF9287E094E09F938F93E9
:104330001F930F930F94B5050F900F900F900F9050
:104340000F900F9060E0C8010E9458A80E94DFE51E
:10435000B80183E494E00E94CAE58AE00E94C23377
:104360000C94E12A83E50E9410E2882311F40C9456
:10437000E12A0E9474E1F82E6DE070E080E50E9471
:10438000A7768C0197FF02C00C94E12AE82E60E02A
:1043900089E40E941CE281110C949A30802F0E94C3
:1043A000F1F781118EC50C949A300E942FDD0C9488
:1043B000E12A0E9451DD0C94E12A0E9466DD0C94F2
:1043C000E12A8091240983FF02C00C94E12A0E9413
:1043D000737387FF02C00C94E12A83E50E9410E208
:1043E000882379F00E9494E10F94D70D8B01CB01C3
:1043F0000E94C1C10635110524F40E9466DD0E94A9
:104400007DA80E943DF80C94E12A8091240983FF45
:1044100002C00C94E12A0E947373F82E87FF02C039
:104420000C94E12A83E50E9410E2082F811106C056
:1044300082E50E9410E2182F8823C1F10E9494E1C6
:104440000F94D70DCB010E94C1C10E9494E120E0DE
:1044500030E04AEA52E40F941B06181614F40C9448
:10446000AD300E9466DD0E947DA8609123047091AA
:104470002404072E000C880B990B0F9421064B0186
:104480005C0140901F0450902004609021047090C3
:104490002204A30192010F94B90E181614F40C947F
:1044A000CB30002311F40C94B13011E00E943DF8A0
:1044B000112311F40C94E12A602F8F2D0E9447C222
:1044C0000C94E12A0E947373182F87FD0AC08BE6B3
:1044D00094E00E9418E5812F0E94D2C18AE00E94D8
:1044E000C2332196BFAD2197B09367150C94FC3170
:1044F00080E50E9496F581110C94E12A81E40E94E6
:10450000C7E1882321F06091090470E002C06FEFD9
:1045100070E083E50E9494768F3F910519F010F0CA
:104520008FEF90E0809309040C94E12A80E50E94CB
:1045300096F581110C94E12A109209040C94E12A59
:104540008EE40E9410E2882311F40C94E12A0E9468
:1045500064E16093F1147093F2148093F3149093D8
:10456000F4140C94E12A83E50E94C7E1882329F022
:1045700083E50E9496F5809324090E94DFE58CE78D
:1045800094E00E9418E580912409882369F102E7EC
:10459000E02E04E0F02E00E010E020E080912409FD
:1045A00090E0A0E0B0E0002E04C0B695A7959795E6
:1045B00087950A94D2F780FF0EC0DD24D394D20EE3
:1045C000222319F08CE20E94C233F7018591949165
:1045D0000E9418E52D2D0F5F1F4FE2E0EE0EF11C3B
:1045E00005301105D9F68ECD8EE694E089CD109276
:1045F000661510922A02E5C741E060E070E083E8AA
:1046000094E00E9404E6DDC70E944232DAC783E5E7
:104610000E9410E2882371F00E9474E1282F30E09C
:104620002D3331051CF480930002CBC78CE38093BB
:104630000002C7C70E94DFE54091000250E060E041
:1046400070E081E994E00E9427E58AE00E94C2338D
:10465000B8C78091240983FDB4C783E50E9410E2A6
:10466000882309F4AEC70E9494E10F94D70D6337F5
:10467000710514F063E770E070938B1360938A13F5
:104680000E947ACB9EC783E50E9410E2882309F43A
:1046900098C70E9474E1182F90E0CD970CF01CE3AE
:1046A000109329030E94D7BA6B017C01212F30E0BF
:1046B000A8EEB3E00F94830CC60ED71EE81EF91EB9
:1046C000C0922503D0922603E0922703F09228039C
:1046D00078C70E9400CC0E9466DD0E94A6630E94FB
:1046E0000B3368EE73E080E090E00E94F4E460E059
:1046F00088E994E00E94D9A764C780912E038F7E39
:10470000806280932E035DC783E50E9410E28823B8
:1047100099F00E9494E120E030E04AE754E40F94DD
:1047200080060F94DC0D6093010270930202809367
:1047300003029093040245C78091611484FF02C074
:104740000C94CE308091631487FF02C00C94CE305D
:1047500080916414837011F00C94CE300C94FE3070
:1047600083E50E94C7E1882309F42BC70E9494E1E6
:1047700020E030E04AE754E40F9480060F94DC0D0B
:1047800060932A0370932B0380932C0390932D0343
:1047900018C70E94737387FD14C79091611494FD2C
:1047A00004C09091631497FF0AC0BDE6CB2EB2E01F
:1047B000DB2E15E2E12E19E0F12E10E009C09091F8
:1047C0006414937091F7682F81E00E947A7AF9C699
:1047D000D6018D916D010E9410E2882309F459C021
:1047E000133009F04FC00E9494E14B015C0120E0BE
:1047F00030E040EA51E40F941B0687FF3AC0A50160
:104800009401609145097091460980914709909102
:1048100048090F946F0D2B013C019B01AC01609185
:1048200055097091560980915709909158090F9434
:1048300080066093550970935609809357099093A9
:1048400058096091FD037091FE038091FF039091E0
:1048500000040F941F06A30192010F9480060F9489
:10486000DC0D6093FD037093FE038093FF03909330
:1048700000048092450990924609A0924709B0929F
:10488000480907C00E9494E1F701648B758B868B01
:10489000978B1F5FF4E0EF0EF11C143009F098CFF6
:1048A0000E94FF618EC60E9422620E943ECA89C693
:1048B0008CEC95E00E9418E560E08CEB95E00E949E
:1048C000C5EB60E087EA95E00E94C5EB61E080EA15
:1048D00095E00E94C5EB61E085E995E00E94C5EB9B
:1048E00061E085E895E00E94C5EB60E08CE795E02B
:1048F0000E94C5EB61E082E795E00E94C5EB60E0B5
:1049000088E695E00E94C5EB60E080E695E00E94B5
:10491000C5EB60E082E595E00E94C5EB60E084E4D1
:1049200095E00E94C5EB60E085E395E00E94C5EB51
:1049300060E087E295E00E94C5EB60E081E195E0F0
:104940000E94C5EB60E080E095E00E94C5EB60E06E
:1049500081EF94E00E94C5EB60E08CED94E00E9452
:10496000C5EB61E089EC94E00E94C5EB60E08CEB64
:1049700094E00E94C5EB60E088EA94E00E94C5EBF9
:1049800020C68091F5149091F614009709F463CB3A
:10499000DC012C91222309F45ECB60E00E9458A830
:1049A00010C60091F5141091F61494E0F12C40E03B
:1049B000915021F1F8018081282F2B7F213421F49F
:1049C00021812133D9F407C08035C1F4818180531E
:1049D0008A3048F013C0813421F0853421F441E05D
:1049E00002C0FF24F39498012E5F3F4F89012F5F8F
:1049F0003F4FF80180818032C9F3DACF41110E9424
:104A0000DFE5FF2021F082E996E00E9418E5C80169
:104A10000E94C334D6C50E9450CBD3C581E0809399
:104A2000460A8093450A0E946FCBCBC51092460A76
:104A30001092450A0E946FCBC4C560E070E083E528
:104A40000E94A7768C011127023011053CF00E94CC
:104A5000DCE586E996E00E9418E5B3C588E40E948B
:104A600010E28823A9F00E9464E16A3A71053CF0E3
:104A70006530F1E07F072CF064E071E002C06AEA83
:104A800070E0F801EE0FFF1FED58FC4E718360835C
:104A900086E40E9410E2882381F00E9464E177FDA1
:104AA00007C06F3F710529F024F06FEF70E001C07F
:104AB00060E0F801E755F64F608382E40E9410E25F
:104AC000882309F47EC50E9464E16530710534F0E5
:104AD000643771052CF063E770E002C065E070E0B8
:104AE000000F111FF801E555F64F7183608369C50A
:104AF0000E947373182F87FD64C584E40E94C7E188
:104B0000882309F43FC00E9494E16B017C0101E01D
:104B100020E030E0A9010F941B06811101C000E0E4
:104B20000093B91320E030E0A901C701B6010F944A
:104B30001B06882339F10E9494E124E01202F0015F
:104B40001124E254FC4E608371838283938320E0BE
:104B500030E0A9016091BE137091BF138091C01322
:104B60009091C1130F941B0681110CC080E090E05E
:104B7000A0EEBFE38093BE139093BF13A093C01326
:104B8000B093C1130E94B4C41CC50E94737387FD07
:104B900018C54DE6E42E42E0F42E05E219E055E397
:104BA000C52E59E0D52ED7018D917D010E94C7E118
:104BB000882359F00E9494E10F94DC0DF801608382
:104BC0007183828393830E94B8610C5F1F4FC0166C
:104BD000D10649F7F6C40E94737387FDF2C43DE61F
:104BE000E32E32E0F32E05E219E0D7018D917D012D
:104BF0000E94C7E1882339F00E9494E1F80164A380
:104C000075A386A397A30C5F1F4FF9E005331F0719
:104C100061F7D7C40E9453E5D4C48091611481FF29
:104C200002C00C9401318091621481FF02C00C9487
:104C30000131809163148C7011F00C940131C1C466
:104C40009DE6C92E92E0D92E2AEFE22E2AE0F22E1E
:104C500010E0D6018D916D010E94C7E1882351F0CB
:104C60000E9494E1F7016083718382839383812F93
:104C70000E9421C71F5FF4E0EF0EF11C133049F7CB
:104C80000E943ECA9EC483E50E94C7E1882351F07A
:104C90000E9494E16093890970938A0980938B093B
:104CA00090938C0986E40E94C7E1882381F00E94DA
:104CB00094E120E030E040E752E40F946F0D609300
:104CC0008D0970938E0980938F09909390098AE5DE
:104CD0000E94C7E1882351F00E9494E160939109FA
:104CE00070939209809393099093940987E50E94A9
:104CF000C7E1882309F465C40E9494E160939D098B
:104D000070939E0980939F099093A0095AC483E5EC
:104D10000E94C7E1882351F00E9494E160939509B5
:104D200070939609809397099093980986E40E945E
:104D3000C7E1882381F00E9494E120E030E040E761
:104D400052E40F946F0D6093990970939A098093C0
:104D50009B0990939C0982E50E94C7E1882381F01A
:104D60000E9494E120E030E040E752E40F946F0DA0
:104D70006093A5097093A6098093A7099093A80949
:104D800087E50E94C7E1882309F41BC40E9494E1CF
:104D90006093A1097093A2098093A3099093A40939
:104DA00010C483E50E94C7E1882309F40AC40E9465
:104DB00085E1809388090E94847203C40E948B79E4
:104DC00000C483E50E9410E2882309F4FAC30E941C
:104DD00064E17093540260935302F3C30E947373AF
:104DE000F82E87FDEEC383E50E9410E20F2D0F2CF5
:104DF000000C110B882369F10E9464E1F801EE0FA9
:104E0000FF1FE75AFD4F71836083000F111F000FD2
:104E1000111F98012B5F3D4F7901072E000C880B65
:104E2000990B0F9421062AE037ED43E25CE30F94DF
:104E30008006F801E654FC4E208131814281538185
:104E40000F948006D7016D937D938D939C93139758
:104E5000B8C30E94DFE585E40E94C23380E38F0D72
:104E60000E94C233F801EE0FFF1FE75AFD4F608129
:104E7000718187ED96E00E94BEE585E20E94C23313
:104E80008AE00E94C2339DC380E50E94C7E1882367
:104E900009F497C360E070E080E50E94A776F82EE1
:104EA0006FEF7FEF83E50E94A7768C010196039751
:104EB00008F087C3F7FC85C38F2D0E94F1F7882384
:104EC00039F00E94DCE58FED96E00E9418E579C389
:104ED0000E94226260E08F2D0E949CB90F3FBFEFBD
:104EE0001B0731F00130110571F000E010E00DC03A
:104EF0008F2D0E94FCFE31E020E0892B09F030E08C
:104F0000032F122F02C001E010E08F2D0E94FCFE43
:104F10008017910709F455C380E00E94E234F5CF71
:104F20008AE50E9410E2811106C083E50E9410E22A
:104F3000882309F440C00E9494E120E030E040E082
:104F400050EC0F941B0687FF02C00C9460310E9446
:104F500094E120E030E040E050E40F94B90E1816E0
:104F600014F40C945A310E9494E12091480A269539
:104F7000269520FF20C0209141093091420940919F
:104F80004309509144090F9480060F94D70D209146
:104F90005C1330915D13260F371F30935D13209300
:104FA0005C132091E4133091E513620F731F70932B
:104FB000E5136093E4138091631487FF02C00C949F
:104FC000663180916414837011F00C9466310E94F4
:104FD000DFE5F7C264E071E083E50E9494768C011E
:104FE00068EE73E080E50E9494768938E3E19E07DD
:104FF00010F088E893E1B8010E94ADA7E2C285E411
:105000000E9496F5811173C080E50E94C7E1882354
:1050100051F00E9494E160932604709327048093DA
:1050200028049093290489E40E94C7E1882381F031
:105030000E9494E12CEA35EC47E25EE30F9480068F
:1050400060932A0470932B0480932C0490932D0476
:1050500084E40E94C7E1882381F00E9494E12CEA55
:1050600035EC47E25EE30F946F0D60932E0470936E
:105070002F0480933004909331040E94DFE5409127
:10508000260450912704609128047091290488E037
:1050900097E00E9443E52CEA35EC47E25EE360913D
:1050A0002A0470912B0480912C0490912D040F946C
:1050B0006F0DAB01BC0184E097E00E9443E52CEA50
:1050C00035EC47E25EE360912E0470912F048091ED
:1050D0003004909131040F948006AB01BC0180E054
:1050E00097E00E9443E58AE00E94C2336AC20E94B0
:1050F000DCE58EEE96E00E9418E563C283E50E942F
:10510000C7E1182F882371F00E9494E10F94D70D06
:1051100070930A026093090221E0672B09F020E0F6
:1051200020931A0480E50E94C7E1882359F020915A
:10513000090230910A02232B11F00E9485E180932D
:105140001A043FC211113DC20E94DFE588E297E0D8
:105150000E9418E580911A04882319F080E197E0F5
:1051600002C08CE097E00E9418E5609109027091FE
:105170000A0287E197E00E94BEE583E197E00E9482
:1051800018E51FC20E94EA671CC2809163148670F2
:1051900011F00C9481310C946D310E9441F5811114
:1051A00010C200E511E324EC33E039A328A3AE01DB
:1051B0004F5F5F4F1A0175EAC72E71E3D72E7A0150
:1051C000F8016591759185919491A8A1B9A18D90EF
:1051D0009D90AD90BD90B9A3A8A3A50194010F9493
:1051E000920C2B013C01F7016083718382839383CE
:1051F00020E030E040EA51EC0F94B90E87FD0AC080
:1052000020E030E040EA51E4C301B2010F941B06F4
:10521000181634F4F6018491181614F40C9498318D
:10522000D7018D909D90AD90BD907D0120E030E044
:1052300040EA51ECC501B4010F94B90E87FF02C0DA
:105240000C94DB3120E030E040EA51E4C501B401C8
:105250000F941B06181614F00C94A4310C94DB3137
:105260000E943DD8AEC10E94AE50ABC161E083E563
:105270000E941CE291E089270E94C551A2C181E0F1
:1052800080937F090E94C75410927F09882309F4F4
:1052900098C10E94DFE588E897E00E9418E591C177
:1052A0008091D40F82FF8DC180648093D40F89C117
:1052B0000E947373082F87FD84C185E50E94C7E1B2
:1052C0008823B1F1E02E002E000CFF080E9494E12B
:1052D0004B015C0120E030E0A9010F94B90E87FF7B
:1052E00004C0B7FAB094B7F8B094C70153E0880F80
:1052F000991F5A95E1F79C012058364F7901D90141
:105300008D929D92AD92BC92139720E030E048E4DC
:1053100053E4C501B4010F94B90E18164CF480E0A3
:1053200090E0A8E4B3E4F70180839183A283B38380
:105330008CE40E94C7E1882309F443C1002E000CCD
:10534000110B0E9494E16B017C0120E030E0A90187
:105350000F94B90E87FF04C0F7FAF094F7F8F094B1
:1053600020E030E048E453E4C701B6010F94B90EE1
:10537000980143E0220F331F4A95E1F7F901E05805
:10538000F64F18162CF0C482D582E682F78219C136
:1053900080E090E0A8E4B3E484839583A683B78398
:1053A00010C10E9459750DC10E947373182F87FD9B
:1053B00008C18AE50E9410E2882349F040E050E0ED
:1053C000BA018AE50E94D3674B015C0106C0812CBB
:1053D000912C90EAA92E91E4B92E412F64E083E04C
:1053E0000E942A7220E030E0A901C501B4010F94A7
:1053F000B90E18167CF580E090E0A0EAB0E489834D
:105400009A83AB83BC832091CC033091CD03409130
:10541000CE035091CF03C501B4010F94930C6B01DF
:105420007C0120E030E04BE953E40F941B0687FD3C
:1054300006C0C12CD12C8BE9E82E83E4F82ECC8E4B
:10544000DD8EEE8EFF8EBE016F5F7F4FCE014C96DC
:105450000E941ECA85E50E94C7E1882329F00E94A8
:1054600094E16B017C010AC028E01202F0011124D2
:10547000E058F64FC080D180E280F38020E030E039
:10548000A901C701B6010F94B90E87FF04C0F7FA4E
:10549000F094F7F8F094F7FAF094F7F8F094C982E2
:1054A000DA82EB82FC8264E0CE0101960E94A9F3CD
:1054B00020E030E0A901C501B4010F94B90E18161F
:1054C0005CF580E090E0A0EAB0E489839A83AB8346
:1054D000BC83A50194016091CC037091CD038091B0
:1054E000CE039091CF030F94920C6B017C0120E0CE
:1054F00030E0A9010F94B90E18161CF0C12CD12C64
:105500007601CC8EDD8EEE8EFF8EBE016F5F7F4FFB
:10551000CE014C960E941ECA40E060E089E00E94E5
:105520002A724FC081E080935B0210922F1360E0DB
:1055300083E50E941CE2811144C00E944AE941C0F7
:1055400083E50E94C7E1882339F00E9485E18093BA
:10555000F90A0E94F9E235C00E94DFE58AE997E086
:105560000E9418E58091F90A882319F087E997E0ED
:1055700002C083E997E00E9418E58AE00E94C233E6
:1055800020C00E94A0501DC00091661410916714A5
:105590000023B9F00E94DFE584E50E94C233B80120
:1055A0007727072E000C880B990B0E94343480E279
:1055B0000E94C2338FEA97E00E9418E502C00E9461
:1055C000A05062963FAD6297311102C00E943BE944
:1055D00021964FAD2197409367150EC78090B51364
:1055E0009090B613A090B713B090B8132091D00349
:1055F0003091D1034091D2035091D303C501B4013E
:105600000F94920C6B017C0120E030E0A9010F9413
:10561000B90E87FFE4C62DEC3CEC4CEC5DEBC7010A
:10562000B6010F941B0618165CF0C701B60190581E
:1056300020E030E040E251E40F941B0618161CF401
:105640000E94DEC7BECF11E020E030E0A901C70113
:10565000B6010F94B90E18160CF010E080912403D7
:105660008113EECF8092D0039092D103A092D20307
:10567000B092D30380ED93E00E94336220E030E0EB
:10568000A901C701B6010F941B06881F8827881F30
:105690000E94C3E396CF11E052E02516310409F0D1
:1056A00010E020E030E0A901C701B6010F941B060D
:1056B000881F8827881F1813A4C080E090E0A0E806
:1056C000BFE388A799A7AAA7BBA728A139A14AA188
:1056D0005BA1C501B4010F94920C20E030E040E0E2
:1056E0005FE30F94800668A379A38AA39BA32CA1F0
:1056F0003DA14EA15FA1C301B2010F94920C20E025
:1057000030E040E05FE30F9480066CA37DA38EA39E
:105710009FA328A139A14AA15BA1CA01B9010F9495
:1057200080064B015C012CA13DA14EA15FA1CA01E5
:10573000B9010F9480069B01AC01C501B4010F941F
:10574000930C0F94FF0E4B015C019B01AC01C70150
:10575000B6010F94920C2B013C01A5019401C701E5
:10576000B6010F94930C9B01AC01C301B2010F94DD
:1057700080066B017C0120E030E0A9010F94B90E96
:1057800087FD07C0C701B6010F94FF0E2B013C0136
:1057900003C0412C512C32016CA17DA18EA19FA18F
:1057A0009058A50194010F946F0D28A539A54AA51D
:1057B0005BA50F948006A30192010F94800628A197
:1057C00039A14AA15BA10F94930C6B017C01A50147
:1057D000940168A179A18AA19BA10F946F0D28A5BE
:1057E00039A54AA55BA50F948006A30192010F94E9
:1057F00080062CA13DA14EA15FA10F94930C0C94A7
:10580000F71B80E090E0A0E8BFEB5BCF20E030E04A
:10581000A901C701B6010F941B06882309F484C3AC
:1058200018A619A61AA61BA6A7019601505828A3C8
:1058300039A34AA35BA388A599A5AAA5BBA5B0587F
:105840008CA39DA3AEA3BFA3CA01B9010F94800688
:105850004B015C012CA13DA14EA15FA1CA01B90180
:105860000F9480069B01AC01C501B4010F94930C09
:105870000F94FF0E6CAF7DAF8EAF9FAF2091C4032E
:105880003091C5034091C6035091C7032CAB3DAB8B
:105890004EAB5FABA70196016CA97DA98EA99FA90C
:1058A0000F94930C25966CAF7DAF8EAF9FAF25976D
:1058B0008091C8039091C903A091CA03B091CB0312
:1058C0008CA79DA7AEA7BFA728A539A54AA55BA50C
:1058D000BC01CD010F94930C29966CAF7DAF8EAFB8
:1058E0009FAF29972091A9133091AA134091AB1330
:1058F0005091AC1328AB39AB4AAB5BAB25962CADC2
:105900003DAD4EAD5FAD259768A979A98AA99BA940
:105910000F94920C6B017C018091AD139091AE13AA
:10592000A091AF13B091B01388AF99AFAAAFBBAF3E
:1059300029962CAD3DAD4EAD5FAD2997BC01CD0193
:105940000F94920C4B015C01A701960168A179A10B
:105950008AA19BA10F9480062B013C01A501940113
:105960006CA17DA18EA19FA10F9480069B01AC012B
:10597000C301B2010F94930C2B013C01A5019401CA
:1059800068A179A18AA19BA10F9480064B015C01BB
:10599000A70196016CA17DA18EA19FA10F94800605
:1059A0009B01AC01C501B4010F94920CA3019201BB
:1059B0000F94060D6B017C0120E030E0A9010F94EB
:1059C0001B0687FF0AC02BED3FE049EC50E4C701FE
:1059D000B6010F94930C6B017C012BED3FE049EC79
:1059E00050E4C701B6010F946F0D20E030E040ECA9
:1059F00051E40F9480060F94590D0F94DC0D8B0128
:105A0000672B11F401E010E092E02916310451F403
:105A10002BED3FE049EC50E4C701B6010F94920C26
:105A20006B017C0120E030E0A901C701B6010F94B1
:105A30001B06811122C028A939A94AA95BA96CA912
:105A40007DA98EA99FA90F941B06811116C028ADB0
:105A500039AD4AAD5BAD6CA57DA58EA59FA50F9414
:105A60001B0681110AC008E110E0FBEDCF2EFFE01C
:105A7000DF2EF9ECEF2EF0E4FF2E2091CC033091D5
:105A8000CD034091CE035091CF032CA73DA74EA745
:105A90005FA76091B1137091B2138091B31390918D
:105AA000B4130F94920C4B015C01A70196016CADED
:105AB0007DAD8EAD9FAD0F9480062B013C0120E0A3
:105AC00030E0A901C501B4010F941B068823C9F079
:105AD000A3019201C301B2010F9480062B013C0186
